:0400000007EF00F016
:0A000800478226ED0AF025EF0CF008
:10100000003F065B4F666D7D077F6F00000E876EA9
:101010003FC027F040C028F0000E266E66EF08F0B3
:1010200027C01FF028C020F0000E226E0A0E216E8D
:101030000EEC0BF01F50266E83EF08F0000E1B6EB7
:101040000A0E1A6E27C018F028C019F063EC0AF0D7
:1010500018C01FF019C020F0000E226E0A0E216E7B
:101060000EEC0BF01F50266E83EF08F0000E1B6E87
:10107000640E1A6E27C018F028C019F063EC0AF04D
:1010800018C01FF019C020F0000E226E0A0E216E4B
:101090000EEC0BF01F50266E83EF08F0030E1B6E54
:1010A000E80E1A6E27C018F028C019F063EC0AF099
:1010B00018C01FF019C020F0000E226E0A0E216E1B
:1010C0000EEC0BF01F50266E83EF08F04650246E96
:1010D000256A2550000AD8B470EF08F083EF08F0B5
:1010E0002450000AD8B410EF08F0010AD8B41EEF5B
:1010F00008F0030AD8B436EF08F0010AD8B44EEF6E
:1011000008F083EF08F0010E2624F66EF76A100E41
:10111000F722F86A000EF8220800F5CF88FF46C0D3
:1011200024F0010E256E242A98EF08F0D890253679
:10113000242E96EF08F02550876E4628030B466E46
:101140001200000E876E3FC010F040C011F0000E7C
:101150000F6E01EF09F010C008F011C009F0000E89
:101160000B6E0A0E0A6E40EC0BF008500F6E1EEF6D
:1011700009F0000E046E0A0E036E10C001F011C0DB
:1011800002F09DEC0AF001C008F002C009F0000E68
:101190000B6E0A0E0A6E40EC0BF008500F6E1EEF3D
:1011A00009F0000E046E640E036E10C001F011C051
:1011B00002F09DEC0AF001C008F002C009F0000E38
:1011C0000B6E0A0E0A6E40EC0BF008500F6E1EEF0D
:1011D00009F0030E046EE80E036E10C001F011C09A
:1011E00002F09DEC0AF001C008F002C009F0000E08
:1011F0000B6E0A0E0A6E40EC0BF008500F6E1EEFDD
:1012000009F046500D6E0E6A0E50000AD8B40BEF6E
:1012100009F01EEF09F00D50000AD8B4ABEF08F04A
:10122000010AD8B4B9EF08F0030AD8B4D1EF08F036
:10123000010AD8B4E9EF08F01EEF09F0010E0F24FF
:10124000F66EF76A100EF722F86A000EF822080010
:10125000F5CF88FF46C00DF0010E0E6E0D2A33EF5C
:1012600009F0D8900E360D2E31EF09F00E50876E32
:101270004628030B466E1200050E3626000E372256
:10128000382239224150D8A448EF09F04AEF09F03A
:10129000B3EF09F0050E2E26000E2F222F5009E184
:1012A000640E2E5CD8A057EF09F059EF09F068EFF3
:1012B00009F03C50D8B45FEF09F062EF09F0010E7D
:1012C00063EF09F0000E3C6E000E2F6E000E2E6EC6
:1012D000050E2C26000E2D222D5009E1460E2C5C09
:1012E000D8A075EF09F077EF09F07DEF09F0E2EC97
:1012F0000BF0000E2D6E000E2C6E050E3026000E2B
:101300003122315009E1C80E305CD8A08AEF09F0D3
:101310008CEF09F0A5EF09F03E5009E10A0E3D5CA3
:10132000D8A095EF09F097EF09F09DEF09F00A0EAC
:101330003D5E000E3E5AA1EF09F0000E3E6E000E1B
:101340003D6E000E316E000E306E30EC0CF0000978
:10135000D8B4ADEF09F0AFEF09F0D0EF09F014EC1D
:101360000CF0D0EF09F04104D8A4B9EF09F0BBEFBD
:1013700009F0D0EF09F0050E3226000E3322050EDB
:101380003426000E3522900E345C010E3558D8A05C
:10139000CCEF09F0CEEF09F0D0EF09F0C2EC0BF082
:1013A0001200000E226E3C50D8B4D9EF09F0DBEFEA
:1013B00009F0DCEF09F02280000E246EFAEF09F04C
:1013C0003B502424236E080E2360E9EF09F0EBEF75
:1013D00009F0F9EF09F023C01FF0010E206E1F2A5B
:1013E000F4EF09F0D89020361F2EF2EF09F02050CC
:1013F0002212242A3A50245CD8A001EF0AF003EF0D
:101400000AF0E0EF09F04104D8A409EF0AF00BEF6D
:101410000AF023EF0AF034C018F035C019F0000EBE
:101420001B6E500E1A6E63EC0AF01850216E21B03C
:101430001CEF0AF01EEF0AF021EF0AF0226823EFFA
:101440000AF0000E226E22C083FF12000600D9CFE0
:1014500012F0DACF13F0F6CF14F0F7CF15F0F8CF83
:1014600016F0F5CF17F0F2A238EF0AF03AEF0AF0D3
:1014700045EF0AF04150D8A440EF0AF042EF0AF0DD
:1014800044EF0AF03BEC0CF0F292F2A44AEF0AF0BF
:101490004CEF0AF055EF0AF03C0ED76EAF0ED66E49
:1014A0003CEC09F0A1EC08F0F29417C0F5FF16C06F
:1014B000F8FF15C0F7FF14C0F6FF13C0DAFF12C023
:1014C000D9FF47921100000E1D6E000E1C6E1A50BF
:1014D0001B10D8B46EEF0AF070EF0AF098EF0AF024
:1014E000010E1E6E78EF0AF0D8901A361B361E2AAF
:1014F0001BAE7DEF0AF07FEF0AF074EF0AF0D89090
:101500001C361D361A50185C1B501958D8A08BEF8A
:101510000AF08DEF0AF092EF0AF01A50185E1B5095
:10152000195A1C80D8901B321A321E2E7FEF0AF0F7
:101530001CC018F01DC019F01200000E066E000E3F
:10154000056E03500410D8B4A8EF0AF0AAEF0AF011
:10155000D2EF0AF0010E076EB2EF0AF0D890033610
:101560000436072A04AEB7EF0AF0B9EF0AF0AEEF7F
:101570000AF0D890053606360350015C0450025834
:10158000D8A0C5EF0AF0C7EF0AF0CCEF0AF003507D
:10159000015E0450025A0580D89004320332072EAF
:1015A000B9EF0AF005C001F006C002F01200010E0A
:1015B0003A6E070E3B6E010E3C6E000E3E6E640EE0
:1015C0003D6E000E406E000E3F6E000E416E000E2E
:1015D000426E000E436E000E446E000E456E000E0D
:1015E0002D6E000E2C6E000E2F6E000E2E6E000E55
:1015F000316E000E306E000E336E000E326E000E35
:10160000356E000E346E000E366E000E376E000E14
:10161000386E000E396E000E836E120021502210BB
:10162000D8B415EF0BF017EF0BF03BEF0BF0010EFA
:10163000236E1FEF0BF0D89021362236232A22AEDC
:1016400024EF0BF026EF0BF01BEF0BF021501F5C8B
:1016500022502058D8A02FEF0BF031EF0BF035EFD0
:101660000BF021501F5E2250205AD8902232213296
:10167000232E26EF0BF01FC01FF020C020F0120019
:101680000A500B10D8B447EF0BF049EF0BF06DEF99
:101690000BF0010E0C6E51EF0BF0D8900A360B36A2
:1016A0000C2A0BAE56EF0BF058EF0BF04DEF0BF092
:1016B0000A50085C0B500958D8A061EF0BF063EF9B
:1016C0000BF067EF0BF00A50085E0B50095AD890E8
:1016D0000B320A320C2E58EF0BF008C008F009C08C
:1016E00009F012009FEC0BF0D7EC0AF0000E2B6E05
:1016F000000E2A6E06EC08F0410E296EEE0EE82E62
:10170000FED7292EFCD700D02A4A2B2A2B5009E1DC
:10171000C80E2A5CD8A08FEF0BF091EF0BF07AEF98
:101720000BF0D58ED1EC09F00D0E296EFC0EE82ED3
:10173000FED7292EFCD792EF0BF007EF00F00F0E2B
:10174000C16E000E956E000E836E000E996E000E37
:101750009A6E000E876E000E886E010E936EF18CED
:10176000F288F292080ED56E3C0ED76EAF0ED66E92
:10177000D596D550F80B0209D56EF28AF294D08E28
:10178000F28E12003A2A050E3A64C9EF0BF0CBEF45
:101790000BF0CFEF0BF001EC0CF0E1EF0BF0070ECC
:1017A0003B6E000E3E6E640E3D6E000E416E010EED
:1017B0003C6E36C042F037C043F038C044F039C008
:1017C00045F01200FF0E016EFF0E026E3A503BC054
:1017D00003F0046A0326000E04220150032602507F
:1017E000042204BEFFEF0BF0045007E1070E035C78
:1017F000D8B0FDEF0BF0FFEF0BF000EF0CF03B2A41
:101800001200010E3A6E070E3B6E000E3E6E640E25
:101810003D6E000E416E36C042F037C043F038C016
:1018200044F039C045F0120020EE3DF0DE503F2676
:10183000DD504022010E416E000E336E000E326EFE
:10184000000E356E000E346E120000EE2CF01B0EF2
:10185000EE6AE806FDE147904792000172EF0BF057
:101860003B50D8B436EF0CF039EF0CF0010E3AEFE4
:101870000CF0000E12003B50D8B441EF0CF043EFD7
:0A1880000CF044EF0CF03B061200E0
:020000040020DA
:08000000FFFFFFFFFFFFFFFF00
:020000040030CA
:0E000000FF06191EF38381FFFFC0FFE0FF40E3
:00000001FF
